:100000000C94FC000C9424010C9424010C94240105
:100010000C9424010C9424010C9424010C942401CC
:100020000C9424010C9424010C9424010C9442138C
:100030000C9424010C9424010C9424010C942401AC
:100040000C9492120C9424010C9402130C94DC1264
:100050000C9424010C9424010C9424010C9424018C
:100060000C94A6130C9424014E414E494E49545908
:10007000494E46CDCCCC3D0AD7233C17B7D1387773
:10008000CC2B329595E6241FB14F0A000020410089
:1000900000C84200401C4620BCBE4CCA1B0E5AAED3
:1000A000C59D746E2F61004F4B004F4B004F4B00AE
:1000B000646F6573206E6F742066697420696E20AA
:1000C0004D656D6F7279004661696C7572652C20A3
:1000D000454550524F4D2073697A652065786365B8
:1000E000656465642000437573746F6D20446576A4
:1000F000696365206973206E6F7420737570706F0B
:10010000727465642062792074686973206669720C
:100110006D776172652076657273696F6E004375E5
:1001200073746F6D2044657669636520646F6573D1
:10013000206E6F742066697420696E204D656D6F46
:100140007279004661696C757265206F6E20726508
:100150006164696E6720636F6E66696700446576E7
:100160006963655F546573745F4E616E6F004465CB
:1001700076696365427566666572204F766572665C
:100180006C6F7721004C6F6164696E6720636F6EDE
:10019000666967206661696C656400000000002480
:1001A0000027002A0000000000250028002B000086
:1001B00000000023002600290004040404040404B1
:1001C0000402020202020203030303030301020406
:1001D00008102040800102040810200102040810C9
:1001E00020000000080002010000030407000000D6
:1001F000000000000000EB1411241FBECFEFD8E078
:10020000DEBFCDBF11E0A0E0B1E0E6E3FDE302C058
:1002100005900D92A63EB107D9F727E0A6EEB1E012
:1002200001C01D92A038B207E1F710E0CCEFD0E09A
:1002300004C02197FE010E94E91DCB3FD107C9F7F9
:100240000E947A150C94991E0C940000AC01109237
:1002500058069091280780912707FA01BF01641B77
:10026000750B20915806308130935806931304C0C3
:10027000921302C0109258063081311104C09217B7
:1002800021F0CB0108953817D1F33196E7CF0F93C2
:100290001F93CF93DF9380911C07882309F446C0F6
:1002A000D0E0C0E0813029F482E080931C07CCE5E7
:1002B000D6E080911D07882341F1209721F4C09159
:1002C0002107D09122078E01CE010E942601892BA1
:1002D00029F42196F80180818111F5CFF801808100
:1002E000882309F1C8010E942601F801E80FF91FCF
:1002F0008081882311F010823196F0932207E093D9
:1003000021071093200700931F0780911F079091EA
:100310002007892B59F081E080931D07DF91CF9151
:100320001F910F91089510E000E0EBCF80E0F6CF31
:10033000833081F028F4813099F08230A9F008955B
:100340008730A9F08830C9F08430B1F48091800002
:100350008F7D03C0809180008F7780938000089507
:1003600084B58F7784BD089584B58F7DFBCF809150
:10037000B0008F778093B00008958091B0008F7D9A
:10038000F9CFCF93DF93282F30E0F901EF51FE4FE3
:100390008491F901E353FE4FD491F901E754FE4FE4
:1003A000C491CC23A1F081110E949801EC2FF0E0C0
:1003B000EE0FFF1FE155FE4FA591B491EC91ED2397
:1003C00081E090E009F480E0DF91CF91089580E032
:1003D00090E0FACF1F93CF93DF93282F30E0F901FD
:1003E000EF51FE4F8491F901E353FE4FD491F9018F
:1003F000E754FE4FC491CC23A9F0162F81110E941F
:100400009801EC2FF0E0EE0FFF1FEB55FE4FA5918A
:10041000B4918FB7F894EC91111108C0D095DE23F8
:10042000DC938FBFDF91CF911F910895DE2BF8CF22
:10043000CF93DF9390E0FC01E353FE4F2491875468
:100440009E4FFC0184918823D1F090E0880F991F82
:10045000FC01E556FE4FA591B491FC01EB55FE4F12
:10046000C591D491623071F49FB7F8943C91822F7A
:10047000809583238C93E8812E2B28839FBFDF9167
:10048000CF9108958FB7F894EC912E2B2C938FBFBA
:10049000F6CF1F93CF93DF93182FEB0161E00E94FB
:1004A0001802209739F460E0812FDF91CF911F91DE
:1004B0000C94EA01CF3FD10511F461E0F5CFE12FB3
:1004C000F0E0EF51FE4FE491E33031F140F4E130E0
:1004D000B1F0E230E1F0C038D1057CF7E4CFE7308D
:1004E00029F1E83059F1E430B1F780918000806261
:1004F00080938000D0938B00C0938A0004C084B5A1
:10050000806884BDC7BDDF91CF911F91089584B5E8
:10051000806284BDC8BDF7CF8091800080688093E1
:100520008000D0938900C0938800EDCF8091B00007
:1005300080688093B000C093B300E5CF8091B00095
:1005400080628093B000C093B400DDCF3FB7F894D1
:100550008091B4049091B504A091B604B091B70411
:1005600026B5A89B05C02F3F19F00196A11DB11D0E
:100570003FBFBA2FA92F982F8827BC01CD01620F4A
:10058000711D811D911D42E0660F771F881F991F05
:100590004A95D1F708952FB7F8946091B0047091FF
:1005A000B1048091B2049091B3042FBF0895DC018F
:1005B000ED91FC910190F081E02D0994EF92FF9272
:1005C0000F931F93CF93DF937C0160912707809156
:1005D0002407909125070E94D702009124071091CB
:1005E0002507E701FE016491662359F0D801ED91DA
:1005F000FC910190F081E02DC80109952196892B8D
:1006000089F7DF91CF911F910F91FF90EF9008959F
:10061000AF92BF92CF92DF92EF92FF920F931F9310
:10062000CF93DF936C017B018B01040F151FEB014E
:100630005E01AE18BF08C017D10759F06991D60105
:10064000ED91FC910190F081E02DC6010995892B77
:1006500079F7C501DF91CF911F910F91FF90EF9036
:10066000DF90CF90BF90AF900895FC01538D448DE3
:10067000252F30E0842F90E0821B930B541710F04D
:10068000CF96089501970895FC01918D828D98175A
:1006900079F0A28DAE0FBF2FB11D5D962C91828D8A
:1006A0008F5F60E60E94AE1D928F822F90E00895CA
:1006B0008FEF9FEF0895FC01918D828D981731F097
:1006C000828DE80FF11D858D90E008958FEF9FEFEB
:1006D0000895FC01918D228D892F90E0805A9F4FC3
:1006E000821B910960E670E00E94BA1D089586E9B8
:1006F00095E00E94690321E0892B09F420E0822F14
:10070000089580E090E0892B29F00E947703811101
:100710000C9400000895FC01A48DA80FB92FB11D01
:10072000A358BF4F2C91848D90E001968F73992729
:10073000848FA689B7892C93A089B1898C91837005
:1007400080648C93938D848D981306C00288F389FE
:10075000E02D80818F7D80830895EF92FF920F932B
:100760001F93CF93DF93EC0181E0888F9B8D8C8D5D
:1007700098131AC0E889F989808185FF15C09FB751
:10078000F894EE89FF896083E889F9898081837014
:10079000806480839FBF81E090E0DF91CF911F91C3
:1007A0000F91FF90EF900895F62E0B8D10E00F5FE4
:1007B0001F4F0F731127E02E8C8D8E110CC00FB6BA
:1007C00007FCFACFE889F989808185FFF5CFCE0152
:1007D0000E948B03F1CFEB8DEC0FFD2FF11DE35841
:1007E000FF4FF0829FB7F8940B8FEA89FB898081D5
:1007F0008062CFCFCF93DF93EC01888D8823B9F04F
:10080000AA89BB89E889F9898C9185FD03C080811B
:1008100086FD0DC00FB607FCF7CF8C9185FFF2CF98
:10082000808185FFEDCFCE010E948B03E9CFDF9160
:10083000CF91089520911E04260F3327331F2132B4
:100840003105ECF420914204FC0190E080E024307A
:1008500069F082E00895A0911E042191AC014250FC
:100860005C4FA40FB52FB11D2C930196861798F3FA
:1008700080911E04680F60931E0480E0089581E05B
:10088000089508958FEF9FEF08958FEF9FEF0895DC
:100890008091F70390E09195819591090895CF9308
:1008A000DF93CB01EA01642F0E941A04CE01DF918D
:1008B000CF910895CF93DF931F92CDB7DEB76983B1
:1008C00061E0CE0101960E941A0481E090E00F9051
:1008D000DF91CF91089590E080E00895E0914F027C
:1008E000F0915002309751F0DC0113962C91139740
:1008F000222321F06D917C9181E009940895E0918B
:100900004F02F0915002309751F0DC0113962C9178
:100910001397211104C06D917C9180E00994089592
:1009200080E991E00895CF93DF93C0E0D5E0809116
:10093000A204C81778F48091A0049091A104CD9FDF
:10094000800D911D1124FC01248121110E946E044F
:10095000CF5FEDCFC0E0D5E08091A204C81778F456
:100960008091A0049091A104CD9F800D911D112430
:10097000FC01248121110E947F04CF5FEDCFDF9124
:10098000CF9108950F931F93CF93DF932091E701A9
:100990002F5F322F37703093E70120FF2BC020E804
:1009A00031FD2064347009F02062205FFC01EC010D
:1009B000239600E011E06485662329F070E0C80109
:1009C0000E94CE1D6F5F6187822F869F080E80E098
:1009D000811D1124811110C01682662311F061500F
:1009E00061873196EC17FD0731F7DF91CF911F91A9
:1009F0000F91089520E0D4CF81508683EECF4F929F
:100A00005F927F928F929F92AF92BF92CF92DF922E
:100A1000EF92FF920F931F93CF93DF932C01EB0183
:100A20000E94A602F20127853089621B730B6A308F
:100A30007105B0F3F8948A819B81181619060CF0A1
:100A4000CBC1E881F9810BB100617BB17F7E7BB9BD
:100A5000BA848F812B2D281B822F2F834F85042E44
:100A6000000C550BAA81BB81ED84DC84CE84E39419
:100A7000D394C3949E81388599848B84118120E01E
:100A8000F32E622F322F3181112788943111380FC4
:100A900008F43FEF81958894E0FC130F1795889434
:100AA000E1FC130F17958894E2FC130F17958894B7
:100AB000E3FC130F17958894E4FC130F17958894A3
:100AC000E5FC130F17958894E6FC130F179588948F
:100AD000E7FC130F17958894232FE110212F8B0D1E
:100AE000122F002C0BB900C017FF7BB930812227D1
:100AF000889400C000C0002C7BB93111390F00C0B0
:100B0000002C0BB900C016FF7BB908F43FEF91959C
:100B1000889400C000C0002C7BB9D0FC230F00C01B
:100B2000002C0BB900C015FF7BB927958894D1FC28
:100B3000230F00C000C0002C7BB92795889400C00B
:100B4000002C0BB900C014FF7BB9D2FC230F2795F2
:100B5000889400C000C0002C7BB9D3FC230F00C0D8
:100B6000002C0BB900C013FF7BB927958894D4FCE7
:100B7000230F00C000C0002C7BB92795889400C0CB
:100B8000002C0BB900C012FF7BB9D5FC230F2795B1
:100B9000889400C000C0002C7BB9D6FC230F00C095
:100BA000002C0BB900C011FF7BB927958894D7FCA6
:100BB000230F00C000C0002C7BB92795889400C08B
:100BC000002C0BB900C010FF7BB9132FD110122FCE
:100BD000990D00C000C0002C7BB900C000C0002CE3
:100BE0000BB900C017FF7BB932812227889400C05F
:100BF00000C0002C7BB931113F0D00C0002C0BB997
:100C000000C016FF7BB908F43FEFE40FF51F00C0EA
:100C100000C0002C7BB9C0FC230F00C0002C0BB916
:100C200000C015FF7BB927958894C1FC230F00C035
:100C300000C0002C7BB92795889400C0002C0BB90C
:100C400000C014FF7BB9C2FC230F2795889400C015
:100C500000C0002C7BB9C3FC230F00C0002C0BB9D3
:100C600000C013FF7BB927958894C4FC230F00C0F4
:100C700000C0002C7BB92795889400C0002C0BB9CC
:100C800000C012FF7BB9C5FC230F2795889400C0D4
:100C900000C0002C7BB9C6FC230F00C0002C0BB990
:100CA00000C011FF7BB927958894C7FC230F00C0B3
:100CB00000C0002C7BB92795889400C0002C0BB98C
:100CC00000C010FF7BB9132FC110122FF19400C088
:100CD00000C0002C7BB9F80C00C000C00BB900C0EC
:100CE00017FF7BB931812227889400C000C0002CF7
:100CF0007BB93111380F00C0002C0BB900C016FFB2
:100D00007BB908F43FEF8195889400C000C0002CA7
:100D10007BB9E0FC230F00C0002C0BB900C015FF0D
:100D20007BB927958894E1FC230F00C000C0002CFC
:100D30007BB92795889400C0002C0BB900C014FF24
:100D40007BB9E2FC230F2795889400C000C0002CDB
:100D50007BB9E3FC230F00C0002C0BB900C013FFCC
:100D60007BB927958894E4FC230F00C000C0002CB9
:100D70007BB92795889400C0002C0BB900C012FFE6
:100D80007BB9E5FC230F2795889400C000C0002C98
:100D90007BB9E6FC230F00C0002C0BB900C011FF8B
:100DA0007BB927958894E7FC230F00C000C0002C76
:100DB0007BB92795889400C0002C0BB900C010FFA8
:100DC0007BB9132FE110122F8B0D00C000C0002C37
:100DD0007BB9119709F086CE4A815B8120EE31E024
:100DE000DA010E94E21DDC01CB01F4E0B695A79583
:100DF00097958795FA95D1F730E020E0B901EAE9B7
:100E00004E9F040E611D5E9F600D711D1124650FC4
:100E1000711D860F971FA11DB11D893E43E09407E8
:100E2000A105B10508F434C0885E9340A109B10959
:100E300042E0B695A795979587954A95D1F747E0F3
:100E4000849F080E211D949F200D311D1124290F10
:100E5000311D6091E60170E0860F971F820F931F8E
:100E60004091B0045091B1046091B2047091B30408
:100E7000292F3327420F531F611D711D4093B0046A
:100E80005093B1046093B2047093B3048093E6016D
:100E900078940E94A602F201708B6787DF91CF9150
:100EA0001F910F91FF90EF90DF90CF90BF90AF9088
:100EB0009F908F907F905F904F90089581E090E099
:100EC0000895549A08956F927F928F92CF92DF92F5
:100ED000EF92FF920F931F93CF93DF93CDB7DEB7BF
:100EE00062970FB6F894DEBF0FBECDBF6C017A01DA
:100EF0003801822EDC011C962C91CA0157FF04C0D8
:100F000088279927841B950B7A8369839C838B831D
:100F10009E838D836D867E868F86213049F5CE0136
:100F200001960E94C20483E0888B1A8A198AF7FE10
:100F300002C08DEF888BD601ED91FC910288F38978
:100F4000E02DBE016F5F7F4FC601099562960FB617
:100F5000F894DEBF0FBECDBFDF91CF911F910F91EF
:100F6000FF90EF90DF90CF908F907F906F900895DB
:100F70001C861B861A86198618861F82D4CFEF928C
:100F8000FF920F931F93CF93DF93CDB7DEB7629796
:100F90000FB6F894DEBF0FBECDBF7C01DC011C96FE
:100FA0008C917A8369835C834B835E834D830D8749
:100FB0001E872F878130F9F4CE0101960E94C2046A
:100FC000188A1A8A198AD701ED91FC910288F3894F
:100FD000E02DBE016F5F7F4FC701099562960FB686
:100FE000F894DEBF0FBECDBFDF91CF911F910F915F
:100FF000FF90EF9008951C861B861A861986188626
:101000001F82DECF0F931F93CF93DF9300D01F92E9
:10101000CDB7DEB7AB0119821A821B82DC01ED91DC
:10102000FC910190F081E02D00E010E020E0BE0195
:101030006F5F7F4F09950F900F900F90DF91CF91C9
:101040001F910F910895FC0185859685089590E084
:1010500080E00895FC0164870895FC01848590E098
:10106000089520919405309195058217930710F407
:101070000C94EE1C80E008950F931F93CF93DF93A1
:101080008C01EB01F801808191819C012F5F3F4F22
:10109000318320830E94310828813981A9014F5F63
:1010A0005F4F5983488328543B4FF901808328813F
:1010B00039812C3D310560F48A3321F729543B4FA7
:1010C000F901108281E0DF91CF911F910F91089576
:1010D00080E0F9CFCF92DF92EF92FF920F931F93B0
:1010E000CF93DF938C01C0909405D0909505C62FC7
:1010F000D0E0F801808191817C01FFEFEF1AFF0AB7
:10110000F801F182E0820E943108CE14DF0480F001
:10111000082E000C990B8C179D0759F781E0DF9181
:10112000CF911F910F91FF90EF90DF90CF90089596
:1011300080E0F5CF0E944701882359F081E0809339
:101140001D0780931E0780911F07909120070C9424
:10115000591B10921E0790E080E00895CF930E94E3
:101160009A08C82F0E949A0861E08F3F910519F0F4
:10117000009729F460E08C2FCF910C94EA01BC0118
:101180008C2FCF910C9449020E949A08892B49F028
:10119000109295041092960410929704109298045D
:1011A00008950E94CB0260939504709396048093F7
:1011B0009704909398040895AF92BF92CF92DF92D4
:1011C000EF92FF920F931F93CF93DF9300D000D045
:1011D000CDB7DEB75C0119821A821B821C82CE0158
:1011E00001967C0110E000E06C01F50180819181A5
:1011F0009C012F5F3F4F318320830E943108F7010C
:101200008083F8018E3241F00F5F1F4F8FEFE81A95
:10121000F80A0430110549F7EC0DFD1D1082C601D6
:101220000E94591B0F900F900F900F90DF91CF915C
:101230001F910F91FF90EF90DF90CF90BF90AF90F4
:101240000895FB0101900020E9F73197AF01461B9B
:10125000570BDC01ED91FC910280F381E02D0994A4
:10126000809153068823A1F060912607809124077E
:10127000909125070E94D70280915B06882341F058
:1012800068EA71E080912407909125070E94210966
:1012900010925A061092530680E008958F929F9202
:1012A000AF92BF92EF92FF920F931F93CF93DF9372
:1012B000CDB7DEB7A1970FB6F894DEBF0FBECDBF96
:1012C0007C01FA01CB0119A2223008F42AE08E0138
:1012D0000F5D1F4F822E912CB12CA12CBF01A501B7
:1012E00094010E946D1DF901CA016A300CF5605D20
:1012F000D8016E938D01232B242B252B79F790E0B9
:1013000080E0109721F0BD01C7010E942109A1963C
:101310000FB6F894DEBF0FBECDBFDF91CF911F9106
:101320000F91FF90EF90BF90AF909F908F90089596
:10133000695CDECF90915306911110C091E09093BB
:10134000530690935A06482F50E070E060E02AE080
:1013500080912407909125070C944E090895CF930E
:10136000DF939091530691110EC0EB010E949A09F0
:1013700080915306882319F0CE010E94DE02DF918E
:10138000CF910C94300980E0DF91CF9108950E94B5
:10139000CB02609395047093960480939704909386
:1013A000980463EA70E085E00C94AF091092A204FF
:1013B00010929F04109291042091940430E0E091E7
:1013C0009204F091930490E080E02817390761F0CF
:1013D00010824681413029F4A181B2814C914111A2
:1013E0001C9201963796F1CF1092940410928E04BD
:1013F00010928D0410929A041092F6031092F50345
:1014000067EA70E085E00C94AF096AEA70E08FE06B
:101410000C94AF092091F5033091F603820F931FCE
:101420009093F6038093F503843A914040F06EE682
:1014300071E085E00E94AF0990E080E00895C90165
:101440008F5A9D4F089581E080939A046DEA70E071
:1014500081E10C94AF09CF93DF938AE00E949A094F
:1014600080918D0490918E04892B91F18BE390E013
:101470000E943108C82F80915306882379F060912B
:10148000270780912407909125070E94D7026C2F8F
:1014900080912407909125070E94D702C1E0D0E0F7
:1014A00080918D0490918E04C817D90788F4CE01DD
:1014B000CB960E94310890915306992339F0682FFA
:1014C00080912407909125070E94D7022196E8CFAA
:1014D000DF91CF910C943009CF93DF932091530685
:1014E0002223A1F0EC0160912707809124079091BD
:1014F00025070E94D702209749F0BE01809124075A
:1015000090912507DF91CF910C942109DF91CF9124
:1015100008950F931F93CF93C82F8B0186E00E94ED
:101520009A09C8010E946C0A80915306882399F099
:101530006091270780912407909125070E94D70288
:101540004C2F50E070E060E02AE0809124079091F9
:1015500025070E944E09CF911F910F910C943009DD
:101560000F931F93CF93C82F8B0187E00E949A0996
:10157000C8010E946C0A80915306882399F06091FB
:10158000270780912407909125070E94D7024C2FAE
:1015900050E070E060E02AE08091240790912507F8
:1015A0000E944E09CF911F910F910C943009CF9357
:1015B000DF93EC0185E00E949A09CE010E946C0A3B
:1015C00080915306882321F080EB90E00E94DE0298
:1015D000DF91CF910C9430090E948B1E1F93CF9303
:1015E000DF9385ED8093BC008091FA039091FB031B
:1015F000A091FC03B091FD030796A11DB11D23E04E
:10160000B695A795979587952A95D1F72091BC0017
:1016100024FD03C01092420452C04091FA0350913D
:10162000FB036091FC037091FD03452B462B472B78
:1016300069F30097A105B10541F02AE22A95F1F777
:1016400000C00197A109B109E1CF8091F903C1E080
:10165000C093F803882399F1D091B8001091BA0093
:101660008091BC008A7B8093BC0060E082E10E9494
:10167000EA0160E083E10E94EA0110924204C09313
:1016800044041092430461E082E10E94EA0161E0B7
:1016900083E10E94EA018091B9008E7F8093B900B6
:1016A0008091B9008D7F8093B90088E48093B80061
:1016B00085E48093BC001093BA00D093B800DF910A
:1016C000CF911F910895FF920F931F93CF93DF93B4
:1016D0008C01EB01F8800E94EE1CF81621F06F2DB2
:1016E000C8010E94F61CCE01DF91CF911F910F918E
:1016F000FF900895AF92BF92CF92DF92EF92FF9248
:101700000F931F93CF93DF930E944701882309F41F
:1017100070C081E080931D0780931E07C0901F0753
:10172000D0902007E60109900020E9F72197CC1915
:10173000DD09DD27E0908D04F0908E04C70101964D
:101740008C0F9D1F8E31914008F058C05E018FEFC5
:10175000A81AB80A2BE3E20EF11C95012E0D3F1DCD
:1017600080919405909195058217930778F010E089
:1017700000E0B601600F711FC701800F911F0E942A
:10178000630B0F5F1F4F0A151B0598F340918D04E3
:1017900050918E04C40FD51FD0938E04C0938D0436
:1017A0008091530681114CC085E00E949A09809176
:1017B0005306882391F06091270780912407909128
:1017C00025070E94D702AE0170E060E02AE0809118
:1017D0002407909125070E944E09DF91CF911F9118
:1017E0000F91FF90EF90DF90CF90BF90AF900C944F
:1017F000300910921E07D12CC12C94CF8091530632
:1018000081111EC085E00E949A09809153068823A9
:1018100021F36091270780912407909125070E946A
:10182000D702C0912407D09125076DE2CE010E9416
:10183000D7022AE041E050E060E070E0CE01CBCF7B
:10184000DF91CF911F910F91FF90EF90DF90CF909C
:10185000BF90AF900895CF93DF930E9447018823F4
:10186000E1F181E080931D0780931E07E0911F073F
:10187000F091200780E3ABE0B1E001900D928A95F2
:10188000E1F78091940590919505892B29F063E209
:1018900090E080E00E94F61C80919405909195055F
:1018A000C09760F0D0E0C0E0BE01655F7E4F21963A
:1018B000CE010E94630BCF32D105B1F78091530660
:1018C000811110C085E00E949A098BE091E00E948E
:1018D0006C0ADF91CF910C94300910921E07F0E052
:1018E000E0E0C8CFDF91CF910895CF93DF930E94BE
:1018F000CB02611571058105910511F00E94FC195B
:1019000083E5809300018EE4809301018DE2809352
:1019100002018093060110920A010E94AD192FEF77
:101920003FE040E050E00E94041DE0E0F1E093E081
:10193000862F8F7020E3280F2A33D0F5238324E0ED
:10194000769567952A95E1F7915031969111F0CFF0
:101950000E94AD192FEF3FE040E050E00E94041DCF
:10196000E0E0F1E093E0862F8F7020E3280F2A3328
:1019700010F5278384E0769567958A95E1F7915075
:1019800031969111F0CF8091940590919505CB9768
:1019900060F0C0E3D0E0BE0160537F4FCE010E94F3
:1019A000630B2196CB33D105B1F7DF91CF91089529
:1019B000885C8383C4CF895C8783DCCF0E94750CED
:1019C00080915306811109C08AE00E949A0980E043
:1019D00091E00E946C0A0C94300908950F931F93B4
:1019E000CF93DF9380E390E00E9431088335D9F5EF
:1019F00081E390E00E9431088E34A9F5809194052E
:101A000090919505CB9770F000E011E0C0E3D0E035
:101A1000CE010E94EE1CF80181938F012196CB33F9
:101A2000D105B1F78AE00E949A0980915306882374
:101A300021F08DE591E00E94DE028BE091E00E94B2
:101A40006C0A80E091E00E946C0A8BEA91E00E94AF
:101A50006C0A8BEA91E00E946C0ADF91CF911F9192
:101A60000F910C9430090E94750C8091940590910F
:101A70009505CC97B8F260E08BE390E00E94F61CED
:101A8000D1CF2F923F924F925F926F927F928F921F
:101A90009F92AF92BF92CF92DF92EF92FF920F93FD
:101AA0001F93CF93DF93CDB7DEB7C75BD1090FB6D6
:101AB000F894DEBF0FBECDBF80918D0490918E044F
:101AC000892B09F492C45BE3E52EF12CC255DF4F5C
:101AD000F982E882CE5AD040C055DF4F1982188271
:101AE000C05BD040CE0182559F4F0E94DC08182F6A
:101AF000882309F47AC4CF57DF4FF982E882C158AE
:101B0000D040CE018F579F4F0E94DC089E012F5F6F
:101B10003F4F790192E1D9011D929A95E9F7882307
:101B2000D9F0F701E80FF11D80818F5F80836AE3B0
:101B3000CE018F579F4F0E946A08082FCE018F5702
:101B40009F4F0E94DC08882351F10111EACF67EC16
:101B500070E085E00E94AF09FE013196CE54DF4F60
:101B6000F983E883C25BD0409E012F573F4FCC548E
:101B7000DF4F39832883C45BD040133009F40EC192
:101B800008F09AC0113009F4BFC0123009F42EC118
:101B90006AE3CE0182559F4F0E946A08FDC0002370
:101BA000B1F20A81B5E00B9FC00111242091F50329
:101BB0003091F603280F391F253A314008F068C0EC
:101BC0000E940A0A009719F0DC0114961C92909367
:101BD000A1048093A0040093E8010C81802F90E081
:101BE000880F991F2091F5033091F603280F391FB4
:101BF000253A314008F051C00E940A0A009711F0BE
:101C0000FC0111829093900480938F040093E9016A
:101C10000985FB80802F8F0D9927991F9C014FE12B
:101C2000429FC001439F900D11242091F5033091F4
:101C3000F603280F391F253A3140A0F50E940A0A01
:101C4000009711F0FC01128290939E0480939D04F2
:101C50000F0D0093EA010A89F7E00F9FC0011124DC
:101C60002091F5033091F603280F391F253A3140B2
:101C7000F0F40E940A0A009721F0DC011C921696EB
:101C80001C92909393048093920400934E0264CF2D
:101C900081EB91E00E94D70AA0CF88EB91E00E94EF
:101CA000D70AB6CF8FEB91E00E94D70AD4CF88EC49
:101CB00091E00E94D70A50CF183009F497C0113133
:101CC00009F066CFC255DF4F68807980CE5AD04088
:101CD0006EE2CE0182559F4F0E946A088111EFC0CB
:101CE00000E0CE0182559F4F0E94DC08182F882308
:101CF00009F478C3011141CF1092930563E471E0B8
:101D000085E00E94AF0971C3CE0182559F4F0E94AA
:101D1000DC08F090A2049091E801F916A9F1C055F1
:101D2000DF4F28813981C05BD0400091A004109121
:101D3000A10445E0F49E000D111D1124D801149654
:101D40001C92149712968C93129728543B4F2D9304
:101D50003C9362E00E941802F80182810E94C10156
:101D600021E0892B09F420E0D80113962C931397D6
:101D700081E014968C9380EB9AE0909350028093CC
:101D80004F02F394F092A204BE0160557F4FCE0142
:101D900082559F4F0E943C08082FA3CFCE01825549
:101DA0009F4F0E94DC08F09091049091E901F91690
:101DB00009F4EECE0F2D10E0000F111F20918F04BB
:101DC00030919004020F131FF8011182808361E0AB
:101DD0000E941802D80111961C92119760E08C9114
:101DE0000E94EA01F394F0929104D2CECE01825582
:101DF0009F4F0E94DC08E82ECE0182559F4F0E9423
:101E0000DC08D82E80E0183029F4CE0182559F4F8F
:101E10000E94DC08F0909F049091EA01F91609F401
:101E2000B3CFC055DF4F28813981C05BD0400091CE
:101E30009D0410919E04BFE1FB9E000D111D112415
:101E4000F80112821682158228543B4F3483238373
:101E5000E082D18295E0989FF0011124E15CFE4F71
:101E6000D801199601900D929A95E1F762E08E2DB6
:101E70000E94180262E0D80111968C910E9418020B
:101E8000F8011686108A1786128A118A1086178A18
:101E9000108E118E128E84EF91E0A0E0B0E0838B63
:101EA000948BA58BB68B81E0828329E83AE030934E
:101EB0009C0420939B04F394F0929F0465CFC25539
:101EC000DF4F08811981CE5AD0406EE2CE01825593
:101ED0009F4F0E946A08882309F402CFC255DF4F42
:101EE000E880F980CE5AD0406EE2CE0182559F4FF5
:101EF0000E946A08882309F4F3CE8091940490919B
:101F00004E02891709F444CEC0909204D0909304F5
:101F100037E0839FC00CD11C1124D6011C92169669
:101F20001C920115110509F457C2C455DF4F1982DF
:101F30001882CC5AD040BE016F577F4FC3010E9418
:101F4000C11465ED71E0CE018F579F4F0E94901E26
:101F5000892B19F481E0F6018683D60116968C91BF
:101F600066EE70E0813009F0C4C18091F503909174
:101F7000F6030896853A914008F0B9C1BE016F5743
:101F80007F4FC8010E94C114AE0144555F4F61EEFE
:101F900071E0CE018F579F4F0E94981B0E94591BE2
:101FA000082FAE0144555F4F61EE71E090E080E094
:101FB0000E94981B0E94591B182FAE0144555F4F79
:101FC00061EE71E090E080E00E94981BBE016F57C7
:101FD0007F4FC7010E94C114AE0144555F4F61EEAF
:101FE00071E0CE018F579F4F0E94981B0E94591B92
:101FF000F82EAE0144555F4F61EE71E090E080E055
:102000000E94981B88E090E00E940A0AFC01892B3C
:1020100009F073C1D6011296FC93EE931197F382E7
:102020008091FE01811147C01092F0011092EF01E2
:102030008FEF8093F3018093F4018093F5018093F7
:10204000F6018093F7018093F80181E08093F90114
:102050001092FB011092FA011092F2011092F1011C
:1020600080910C0290910D02892B31F48DEE91E05C
:1020700090930D0280930C02A091EB01B091EC01C2
:10208000109731F08DEE91E015969C938E931497F6
:102090008DEE91E09093EC018093EB011092FD01A5
:1020A0001092FC0182E791E09093EE018093ED01A4
:1020B00081E08093FE01549A22E132E03093F001F6
:1020C0002093EF0184E190E09093FB018093FA016B
:1020D0008091740790917507A0917607B09177076A
:1020E000843C29E09207A105B10520F484EC99E035
:1020F000A0E0B0E08093740790937507A0937607F3
:10210000B093770784E18093710784819581FC0106
:10211000EE0FFF1FE80FF91FEE5EFD4F8FEF80837C
:10212000818382838091740790917507A0917607CF
:10213000B0917707892B8A2B8B2BD9F00E94A602AE
:1021400000910E0210910F022091100230911102A5
:10215000601B710B820B930B009174071091750734
:1021600020917607309177076017710782079307F0
:10217000C8F20E94A60260930E0270930F02809331
:10218000100290931102E0917C07F0917D0784E1A9
:10219000B82E309759F040917807509179076091A7
:1021A0007A0770917B0784E10995B82E80E8CE54B8
:1021B000DF4FA881B981C25BD0401D928A95E9F7B3
:1021C000E0900C02F0900D02FE0131961F014F01CC
:1021D0004B2C512C712C612CE114F10409F496C0A4
:1021E000CC54DF4F88819981C45BD0408815990514
:1021F00009F48CC0D701ED91FC910484F585E02DA4
:10220000C7010995F401819391934F018091720761
:10221000909173078436910518F4D7011C961C928F
:10222000D701ED91FC9122813381CA54DF4F39836C
:102230002883C65BD040C755DF4F1882C95AD040AB
:10224000C655DF4F1882CA5AD040C555DF4F188295
:10225000CB5AD040BB2091F187010A5F1F4FF0E0BD
:10226000E0E0D8012D918D01222321F11296AC904E
:10227000AA2001F130E050E040E02F5F3F4F4F4F88
:102280005F4FC301B2010E949E1D9B01AC018A2DCC
:1022900090E0B0E0A0E0BC01CD016F5F7F4F8F4FB9
:1022A0009F4F0E949E1DA9EAB0E0AC0FBD1FAE0F6C
:1022B000BF1F8C933196E330F10599F6C755DF4F78
:1022C000088119812A81C95AD040F7014585568570
:1022D00062817381C701CA54DF4FE881F981C65B0F
:1022E000D0400995D7011496ED90FC9075CF6EE122
:1022F00071E085E00E94AF096FC08AE090E09583AD
:102300008483978386830183128384CE00910C0299
:1023100010910D0201151105C9F0CC54DF4FE88171
:10232000F981C45BD040E215F30581F0D1016D91D4
:102330007D911D01D801ED91FC910684F785E02D7A
:10234000C8010995F80104811581E4CF80910A0242
:1023500090910B028C010F5F1F4F10930B020093A3
:102360000A024997B4F10E94CB0280900602909035
:102370000702A0900802B09009029B01AC01281945
:1023800039094A095B0921F421E030E040E050E0DE
:1023900088EE93E0089FB001099F700D189F700DA3
:1023A0001124072E000C880B990B0E946D1D309391
:1023B00073072093720710920B0210920A020E9478
:1023C000CB026093060270930702809308029093F9
:1023D000090281E0D6018C93809194048F5F8093F1
:1023E0009404D6CB002309F487CCC954DF4F0FB631
:1023F000F894DEBF0FBECDBFDF91CF911F910F913B
:10240000FF90EF90DF90CF90BF90AF909F908F9014
:102410007F906F905F904F903F902F9008950E9413
:10242000410D0C94230ACF93DF93EC01CB010E9462
:10243000551B20E030E040E85FE30E94F01D20E003
:1024400030E048E951E40E942D1C20E030E040E0FB
:102450005FE30E942D1C20E030E0A9010E94F01DE6
:102460000E945C1E7D836C83DF91CF9108950F9352
:102470001F93CF93DF930E949A088C01809194045C
:102480008017110609F00CF448C00E949A08EC016C
:102490000E9447018823C1F081E080931D0780934B
:1024A0001E0760911F0770912007DB01FB01CD0122
:1024B0002081222371F080912807281301C03196D2
:1024C00080818D933196F3CF10921E0760E070E00B
:1024D000ECCF8E179F0720F4DC011D92CD01F9CFC0
:1024E00027E0209FC001219F900D1124E0919204CC
:1024F000F0919304E80FF91F8081882371F08681A1
:10250000813059F42296239740F481819281DF91A2
:10251000CF911F910F910C941312DF91CF911F91C6
:102520000F9108951F920F920FB60F9211242F93BF
:102530003F938F939F93AF93BF938091B0049091FB
:10254000B104A091B204B091B3043091AF0423E080
:10255000230F2D3758F50196A11DB11D2093AF040F
:102560008093B0049093B104A093B204B093B304E9
:102570008091B4049091B504A091B604B091B704D1
:102580000196A11DB11D8093B4049093B504A0934E
:10259000B604B093B704BF91AF919F918F913F91D3
:1025A0002F910F900FBE0F901F90189526E8230FC4
:1025B0000296A11DB11DD2CF1F920F920FB60F929E
:1025C00011242F933F934F935F936F937F938F9338
:1025D0009F93AF93BF93EF93FF9386E995E00E949B
:1025E0008B03FF91EF91BF91AF919F918F917F915D
:1025F0006F915F914F913F912F910F900FBE0F9070
:102600001F9018951F920F920FB60F9211242F93BF
:102610005F936F937F938F939F93AF93BF93EF934A
:10262000FF93E091A605F091A7058081E091AC05AC
:10263000F091AD0582FD24C020818091AF0590E02E
:10264000019660E670E00E94BA1D9091B00598175F
:1026500041F0E091AF05F0E0EA56FA4F258F809304
:10266000AF05FF91EF91BF91AF919F918F917F91B6
:102670006F915F912F910F900FBE0F901F90189543
:102680008081EFCF1F920F920FB60F9211242F93DC
:102690003F938F939F93EF93FF9380918C0487FFD9
:1026A0001FC0109285001092840080918C048F5F6F
:1026B00080938C0480918C0487FF04C080918C04EB
:1026C0008C30ACF080918400909185000496803429
:1026D0009C4990F1809184009091850004962EC0D1
:1026E00080918C0487FFE1CF80918C04DECF209114
:1026F000840030918500E0918C048E2FEE0F990BB1
:10270000FC01EE0FFF1FE80FF91FE859FB4F818115
:102710009281820F931F909389008093880080910B
:102720008C04FF91EF919F918F913F912F910F908A
:102730000FBE0F901F90189580E49CE9909389003C
:10274000809388008FEF80938C04EBCF1F920F92C1
:102750000FB60F9211242F933F934F935F936F9374
:102760007F938F939F93AF93BF93EF93FF9380914A
:10277000B900887F803609F44AC0F0F5883209F440
:10278000A5C018F5803109F499C0B8F4882309F47C
:10279000F5C0883009F492C0FF91EF91BF91AF91DD
:1027A0009F918F917F916F915F914F913F912F9169
:1027B0000F900FBE0F901F901895883109F486C0B6
:1027C000803251F78093410414C0803409F49BC0D7
:1027D00040F48033B9F38833F9F68093410485ECF3
:1027E000AEC0803509F483C0883509F494C08834BC
:1027F00099F60E94EE0AD0CF883909F48AC038F5DC
:10280000883729F050F4883611F0803729F683E0B4
:10281000809342041092400455C0883809F479C06E
:10282000803919F0803809F0B7CF809140048032A8
:1028300008F06FC0E091400481E08E0F8093400467
:102840008091BB00F0E0E05EFB4F80833BC0803BAB
:1028500039F0D0F4803A09F477C0883A09F09CCF77
:1028600084E08093420410921F0410921E04F0E052
:10287000E0E0099580911E0481110FC081E08093F2
:102880001E041092FE0309C0803C09F4A8CF883CC6
:1028900009F4A5CF883B09F07FCFE0911F0481E0C8
:1028A0008E0F80931F04F0E0E250FC4F80818093F4
:1028B000BB0090911F0480911E0429C08091670481
:1028C0008093BB0085EC8093BC0066CF909166043A
:1028D00080916504981758F5E091660481E08E0FA9
:1028E00080936604F0E0EB5BFB4F8081E9CFE091E1
:1028F000660481E08E0F809366048091BB00F0E057
:10290000EB5BFB4F80839091660480916504981780
:10291000C8F285E8D8CFE091660481E08E0F8093FD
:1029200066048091BB00F0E0EB5BFB4F80838091FD
:10293000440481115ECF81E08093430484EA809354
:10294000BC001092420428CF85EC8093BC0010920A
:10295000420480914004803230F4E0914004F0E081
:10296000E05EFB4F10826091400470E080E294E0F2
:10297000F0E0E0E00995109240040ECF109241047F
:1029800038CFCF92DF92EF92FF920F931F93CF93A6
:102990008B017B01C0E06C01C61AD70AC6018E0DFF
:1029A0009F1D0E943108CF5FF70181937F01C832DC
:1029B00081F08E3299F7F801EC0FF11D31971082FA
:1029C00081E0CF911F910F91FF90EF90DF90CF901A
:1029D000089580E0F6CF109299051092980588EE40
:1029E00093E0A0E0B0E080939A0590939B05A093BC
:1029F0009C05B0939D058AE991E09093970580939B
:102A0000960585EC90E09093A3058093A20584EC55
:102A100090E09093A5058093A40580EC90E09093BE
:102A2000A7058093A60581EC90E09093A90580937B
:102A3000A80582EC90E09093AB058093AA0586EC04
:102A400090E09093AD058093AC051092AF05109285
:102A5000B0051092B1051092B20510929505109232
:102A6000940510922A071092290786E995E0909321
:102A700025078093240710925B068CE2809327073A
:102A80008BE3809326078FE28093280780E680936C
:102A900056068FE580935706109255061092200730
:102AA00010921F07109222071092210781E0809355
:102AB0001D07EBE2F7E01192119287E0E137F8078A
:102AC000D1F710925A068FEF809371071092730717
:102AD0001092720710927D0710927C078FEF9FEF84
:102AE000DC018093780790937907A0937A07B093DD
:102AF0007B070895789484B5826084BD84B5816035
:102B000084BD85B5826085BD85B5816085BD8091B8
:102B10006E00816080936E00109281008091810030
:102B20008260809381008091810081608093810028
:102B3000809180008160809380008091B1008460EA
:102B40008093B1008091B00081608093B00080914B
:102B50007A00846080937A0080917A00826080930A
:102B60007A0080917A00816080937A0080917A0067
:102B7000806880937A001092C100E091A605F091E0
:102B8000A70582E08083E091A205F091A305108261
:102B9000E091A405F091A50580E180831092AE0537
:102BA000E091AA05F091AB0586E08083E091A8054D
:102BB000F091A905808180618083E091A805F09162
:102BC000A905808188608083E091A805F091A9051E
:102BD000808180688083E091A805F091A9058081BB
:102BE0008F7D808380E094E0909395058093940599
:102BF00087EC99E090932A07809329078EEA98E062
:102C00009093300780932F078EEE9CE090933E07C1
:102C100080933D078BE29AE09093440780934307AB
:102C20008AE79BE0909342078093410786ED99E005
:102C3000909346078093450785E09AE09093480774
:102C4000809347078FE092E190934C0780934B0766
:102C50008BE29CE090935207809351078EED9CE0AD
:102C6000909354078093530783E994E090935A0715
:102C70008093590784EC98E09093500780934F0716
:102C800087E392E190936C0780936B0781E08093D8
:102C90005B0690E080E00E943108833271F40BE023
:102CA00011E0D0E0C0E02196CE010E94EE1CD801D8
:102CB0008D938D01CF32D105B1F710928E04109211
:102CC0008D048BE390E0EC0121960E94310888236B
:102CD00009F4DEC080918D0490918E04019690934A
:102CE0008E0480938D04CE01C130D44061F765E835
:102CF00071E085E00E94AF090E94CB026093A304BB
:102D00007093A4048093A5049093A6040E94CB0220
:102D10006093A7047093A8048093A9049093AA04D5
:102D2000A7E06A2EB0E0EB2EB0E0FB2E7724739480
:102D300080915A068111C2C0809124079091250785
:102D4000DC01ED91FC910084F185E02D0995892B42
:102D500009F4B4C08091240790912507DC01ED911E
:102D6000FC910084F185E02D0995F0E6CF2ED12C61
:102D70008036910564F48091240790912507DC0149
:102D8000ED91FC910084F185E02D09956C01C091D5
:102D90002407D0912507ECEB8E2EE6E09E2E540101
:102DA00010E000E0C016D10611F10E94CB02688746
:102DB00079878A879B87E881F9810284F385E02DF2
:102DC000CE01099597FF4FC20E94CB022885398515
:102DD0004A855B85621B730B840B950B2C813D81AF
:102DE0004E815F81621773078407950720F3D0E057
:102DF000C0E0CC16DD0609F49BCFF40191914F01A0
:102E000010921C073091280720915906909359067B
:102E1000931304C0921302C0109259068091550674
:102E2000E82FF0E040912607ED5AF94F941335C092
:102E3000321799F11186882321F070921C071092A5
:102E40005906109255061092200710921F071092F3
:102E500022071092210770921D0780911C07813074
:102E600059F50E949A08809354068332F8F4209111
:102E70001E072223D9F0FC01FF27EE0FFF1FE55D9F
:102E8000F84F0190F081E02D309781F0099514C042
:102E90000E94410D0E94230A2FCF91878F5F80935C
:102EA000550690915706891760F6D7CFE09129070C
:102EB000F0912A07309751F721969BCF8090950487
:102EC00090909604A0909704B090980480919904F3
:102ED0008111CFC10E94CB02681979098A099B0927
:102EE000613A7B4B8D40910508F457C0AA24A39406
:102EF000A0929904C0E080919104C81788F48C2FA7
:102F000090E0880F991FE0918F04F0919004E80FF2
:102F1000F91F118260E080810E94EA01CF5FEBCF50
:102F2000C0E080919404C817C0F5E0919204F0913C
:102F30009304C69DE00DF11D11248081882349F082
:102F40008681813031F46FEA71E0818192810E9443
:102F50001312CF5FE6CF662309F4AFC170E00E9481
:102F60004902ADC1C0E080919404C817B0F4E0916B
:102F70009204F0919304C69DE00DF11D112480810F
:102F8000882349F08681813031F463EE71E08181DC
:102F900092810E941312CF5FE6CF80919A0488231A
:102FA00009F455C10E94CB020091A3041091A4041E
:102FB0002091A5043091A604601B710B820B930B2A
:102FC0006A30710581059105B0F110E005E080914E
:102FD000A204181730F5C091A004D091A104109F4D
:102FE000C00DD11D11248C81882399F08A810E9403
:102FF000C1019B81891769F091E0811101C090E0C6
:103000009B839C81811107C0992319F0CE010E94F6
:103010007F041F5FDCCF9923E1F3CE010E946E0491
:10302000F8CF0E94CB026093A3047093A404809312
:10303000A5049093A6040E94CB020091A7041091CE
:10304000A8042091A9043091AA046017710782078F
:10305000930709F4FCC010E080919F04181708F052
:10306000ECC0C0919D04D0919E044FE1B42E1B9DF5
:10307000C00DD11D11248A81882309F4B2C0888132
:103080000E94C1016C0189810E94C1015C010E9402
:10309000CB021B012C0181E090E0AB2811F090E005
:1030A00080E0880F991F21E0CD2809F020E0922FC1
:1030B000982B4B8D5C8D6D8D7E8D62015101A41A14
:1030C000B50AC60AD70AB601A501453651056105FC
:1030D000710508F488C08885823008F484C02B8E7E
:1030E0003C8E4D8E5E8E81508887EE859E1709F44A
:1030F00045C0888523E330E0873010F421E030E0DC
:10310000AD8544E0E402F0011124492F092E000CA2
:10311000550BE42BF52BEA57FE4F00810203B0015B
:10312000039F700D11240A2E02C0660F771F0A94A8
:10313000E2F72F853889260F371F388B2F874C0FE2
:103140005D1FFA0141854423C1F04B895C896D897B
:103150007E894F8B588F698F7A8F2B8A3C8A4D8A54
:103160005E8A02C035952795AA95E2F73A8B298B9E
:103170008C3008F08BE08F5F88879E87C988DA885B
:103180008D819E81C816D90661F15601A81AB90A27
:10319000C501E0919B04F0919C04AA0CBB1C3097E4
:1031A00009F448C06B817C819C012F5C3F4F233622
:1031B0003105D0F597FD2FC080E00995AC0CBD1C02
:1031C00021E4A2162FE1B20654F08F85988983700E
:1031D0009927988B8F871A8A198AD12CC12CDE8265
:1031E000CD821F5F39CF4F89588D698D7A8D6201ED
:1031F0005101A41AB50AC60AD70AB601A501453F6E
:1032000051406105710508F470CF2B8E3C8E4D8EB8
:103210005E8E18866ACF82E00995C6018A199B09DD
:10322000803C904E94F2DBCF97FD02C081E0C5CF89
:1032300083E0F2CF97FDF1CFC1CF0E94CB02609324
:10324000A7047093A8048093A9049093AA04E1149E
:10325000F10409F46DCD0E947703882309F468CD49
:103260000E94000065CDD5018D935D010F5F1F4F5A
:1032700099CD0E94CB02681979098A099B09603AA5
:103280007B4B8D40910508F088CE10929904C0E0E8
:1032900080919104C81708F065CE8C2F90E0880FBC
:1032A000991FE0918F04F0919004E80FF91F61815C
:1032B00080816F3F09F04FCE61E00E94EA01CF5F4D
:1032C000E7CF8F929F92AF92BF92CF92DF92EF9211
:1032D000FF92CF93DF93EC01688179818A819B8192
:1032E000611571058105910521F464E279ED8BE5A5
:1032F00097E02DE133EF41E050E00E94041D4901C9
:103300005A019B01AC01A7EAB1E40E94231D6B01A5
:103310007C01ACEEB4EFA50194010E94311DC60EF4
:10332000D71EE81EF91EF7FE06C081E0C81AD108B4
:10333000E10880E8F80AC882D982EA82FB82C701E4
:10334000B6019F77DF91CF91FF90EF90DF90CF9004
:10335000BF90AF909F908F9008958F929F92AF9261
:10336000BF92CF92DF92EF92FF9260913B017091FA
:103370003C0180913D0190913E01611571058105EF
:10338000910521F464E279ED8BE597E02DE133EFCF
:1033900041E050E00E94041D49015A019B01AC012B
:1033A000A7EAB1E40E94231D6B017C01ACEEB4EFEF
:1033B000A50194010E94311DC60ED71EE81EF91EFC
:1033C000F7FE06C081E0C81AD108E10880E8F80AD3
:1033D000C0923B01D0923C01E0923D01F0923E014F
:1033E000C701B6019F77FF90EF90DF90CF90BF901D
:1033F000AF909F908F90089560933B0170933C0134
:1034000080933D0190933E010895B0E0A0E0EBE091
:10341000FAE10C943C1D5C017B016115710519F00A
:10342000DB018D939C9385010F5F1F4FF501D081C8
:103430008D2F90E00E94771B6C01892BB9F5DD324E
:10344000B9F50F5F1F4FD5011196DC91C1E058010E
:10345000F1E0AF1AB10843E050E060E770E0C50169
:103460000E94801B892B69F5680182E0C80ED11C7F
:1034700045E050E06BE670E0C6010E94801B892B9E
:1034800021F4680197E0C90ED11CE114F10419F090
:10349000D701CD92DC9260E070E080E89FEFC1112F
:1034A000FFC060E070E080E89FE7FAC05801BBCF42
:1034B000DB3229F485010E5F1F4FF501D181C0E099
:1034C000C6CF43E050E068E670E0C5010E94801B73
:1034D000892BE9F0F80110E000E020E030E0A901DC
:1034E0005F01B0ED8B2E8D0E89E08815C8F19C2E02
:1034F000689491F88C2F8870C2FF16C0811102C0A9
:103500000F5F1F4F3196D501DC91C92DE9CFE11432
:10351000F10429F00E5F1F4FF7011183008360E073
:1035200070E080EC9FE7BCC0882311F001501109C6
:10353000A5E0B0E00E94231D9B01AC01220F331FC8
:10354000441F551F280D311D411D511D283999E972
:103550003907490799E15907A8F2C6609C2ED2CFD6
:10356000AEEF8A1206C0C3FD3CC09C2E689493F84F
:10357000C9CFDF7DD534A9F580818D3239F4C061A2
:10358000DF011296818162E070E006C0DF018B32BC
:10359000C1F3119661E070E080535D01A61AB70A8D
:1035A0008A30F8F4E0E8CE16ECE0DE065CF4B60112
:1035B000660F771F660F771FC60ED71ECC0CDD1C5B
:1035C000C80ED11C5D01FFEFAF1ABF0A8C9180536A
:1035D0008A30A8F1C4FF03C0D194C194D1080C0D66
:1035E0001D1DC1FF09C0E114F10431F081E0A81AEA
:1035F000B108D701AD92BC92CA01B9010E94CC1B9F
:10360000C370C33009F490584B015C0120E030E0F6
:10361000A9010E94C71B882309F440C0CFE9D0E06C
:1036200017FF05C0119501951109C7E8D0E06E019B
:10363000B8E1CB1AD10880E2E82EF12C0FC0D501F9
:10364000B1CFFE0125913591459154910E191F0975
:10365000C501B4010E942D1C4B015C01D501C401C0
:103660000E151F0574F72497F594E794CC16DD0624
:10367000A9F78A2F880F8B2F881F8F3F49F020E0F2
:1036800030E0A901C501B4010E94C71B811106C029
:1036900082E290E090937F0780937E07C501B4019A
:1036A000CDB7DEB7ECE00C94581D662777270C9455
:1036B000051AFC0188279927E89421912032E9F323
:1036C000293010F02E30C8F32B3241F02D3239F46E
:1036D000689404C00E94BF1B820F911D219120534A
:1036E0002A30C0F31EF4909581959F4F0895911153
:1036F0000C949A1C803219F089508550C8F70895AF
:10370000FB01DC014150504088F08D9181341CF068
:103710008B350CF4805E659161341CF06B350CF4D4
:10372000605E861B611171F3990B0895881BFCCFB5
:10373000FA01A191B081009719F41097E1F0CD0141
:10374000DC01CD010D90002011F4C00113C0FB017C
:103750002191222319F02015D9F7F3CFFB012191F4
:10376000201519F41E92119606C02223C1F70D9060
:103770000020A1F7D001FA01A193B08308957AE067
:10378000979F902D879F802D910D112408950E9461
:10379000091C08F481E00895E89409C097FB3EF401
:1037A00090958095709561957F4F8F4F9F4F99238E
:1037B000A9F0F92F96E9BB279395F695879577950C
:1037C0006795B795F111F8CFFAF4BB0F11F460FFCC
:1037D0001BC06F5F7F4F8F4F9F4F16C0882311F024
:1037E00096E911C0772321F09EE8872F762F05C038
:1037F000662371F096E8862F70E060E02AF09A95D3
:10380000660F771F881FDAF7880F9695879597F9C7
:103810000895990F0008550FAA0BE0E8FEEF161661
:103820001706E807F907C0F012161306E407F507B4
:1038300098F0621B730B840B950B39F40A2661F028
:10384000232B242B252B21F408950A2609F4A140CB
:10385000A6958FEF811D811D08950E94401C0C9438
:10386000B41C0E94A61C38F00E94AD1C20F09523C9
:1038700011F00C949D1C0C94A31C11240C94E81CB6
:103880000E94C51C70F3959FC1F3950F50E0551F22
:10389000629FF001729FBB27F00DB11D639FAA27A5
:1038A000F00DB11DAA1F649F6627B00DA11D661FF4
:1038B000829F2227B00DA11D621F739FB00DA11D15
:1038C000621F839FA00D611D221F749F3327A00DCF
:1038D000611D231F849F600D211D822F762F6A2F6B
:1038E00011249F5750409AF0F1F088234AF0EE0FD0
:1038F000FF1FBB1F661F771F881F91505040A9F7FD
:103900009E3F510580F00C949D1C0C94E81C5F3F79
:10391000E4F3983ED4F3869577956795B795F79538
:10392000E7959F5FC1F7FE2B880F911D96958795B0
:1039300097F9089599278827089597F99F6780E850
:1039400070E060E008959FEF80EC089500240A94F1
:103950001616170618060906089500240A9412166A
:103960001306140605060895092E0394000C11F49D
:10397000882352F0BB0F40F4BF2B11F460FF04C04A
:103980006F5F7F4F8F4F9F4F089557FD9058440FA3
:10399000551F59F05F3F71F04795880F97FB991FAE
:1039A00061F09F3F79F0879508951216130614066B
:1039B000551FF2CF4695F1DF08C0161617061806F8
:1039C000991FF1CF86957105610508940895E894D3
:1039D000BB2766277727CB0197F90895F999FECF82
:1039E00092BD81BDF89A992780B50895262FF9993F
:1039F000FECF1FBA92BD81BD20BD0FB6F894FA9AD2
:103A0000F99A0FBE01960895052E97FB1EF40094B7
:103A10000E941B1D57FD07D00E946D1D07FC03D09F
:103A20004EF40C941B1D50954095309521953F4FB9
:103A30004F4F5F4F089590958095709561957F4F9A
:103A40008F4F9F4F08950E948F1DA59F900DB49F8B
:103A5000900DA49F800D911D11240895B7FF0C9423
:103A6000231D0E94231D821B930B08952F923F92CA
:103A70004F925F926F927F928F929F92AF92BF927E
:103A8000CF92DF92EF92FF920F931F93CF93DF932A
:103A9000CDB7DEB7CA1BDB0B0FB6F894DEBF0FBE87
:103AA000CDBF09942A88398848885F846E847D84D4
:103AB0008C849B84AA84B984C884DF80EE80FD80D6
:103AC0000C811B81AA81B981CE0FD11D0FB6F8944C
:103AD000DEBF0FBECDBFED010895A1E21A2EAA1BD5
:103AE000BB1BFD010DC0AA1FBB1FEE1FFF1FA217AE
:103AF000B307E407F50720F0A21BB30BE40BF50BAB
:103B0000661F771F881F991F1A9469F76095709533
:103B1000809590959B01AC01BD01CF010895A29FB6
:103B2000B001B39FC001A39F700D811D1124911D91
:103B3000B29F700D811D1124911D0895DB018F939B
:103B40009F930E94231DBF91AF91A29F800D911D55
:103B5000A39F900DB29F900D11240895991B79E0B9
:103B600004C0991F961708F0961B881F7A95C9F70D
:103B700080950895AA1BBB1B51E107C0AA1FBB1F5C
:103B8000A617B70710F0A61BB70B881F991F5A95E9
:103B9000A9F780959095BC01CD01089597FB072E5C
:103BA00016F4009407D077FD09D00E94BA1D07FCD7
:103BB00005D03EF4909581959F4F0895709561953D
:103BC0007F4F08950E948F1DB7FF0895821B930BAE
:103BD0000895EE0FFF1F0590F491E02D09945058C1
:103BE000BB27AA270E94071E0C94B41C0E94A61C87
:103BF00038F00E94AD1C20F039F49F3F19F426F4F0
:103C00000C94A31C0EF4E095E7FB0C949D1CE92F8B
:103C10000E94C51C58F3BA176207730784079507FB
:103C200020F079F4A6F50C94E71C0EF4E0950B2E29
:103C3000BA2FA02D0B01B90190010C01CA01A001FE
:103C40001124FF27591B99F0593F50F4503E68F159
:103C50001A16F040A22F232F342F4427585FF3CF9A
:103C6000469537952795A795F0405395C9F77EF46B
:103C70001F16BA0B620B730B840BBAF09150A1F0B4
:103C8000FF0FBB1F661F771F881FC2F70EC0BA0F3A
:103C9000621F731F841F48F4879577956795B795C2
:103CA000F7959E3F08F0B0CF9395880F08F09927BD
:103CB000EE0F9795879508950E94CD1C88F09F5729
:103CC00098F0B92F9927B751B0F0E1F0660F771F40
:103CD000881F991F1AF0BA95C9F714C0B13091F036
:103CE0000E94E71CB1E008950C94E71C672F782F21
:103CF0008827B85F39F0B93FCCF3869577956795FB
:103D0000B395D9F73EF490958095709561957F4F66
:103D10008F4F9F4F089581E090E0F8940C94991E86
:103D2000FB01DC018D91019080190110D9F3990BF1
:063D30000895F894FFCF96
:103D36003039383736353433323100446576696385
:103D46006520546573740000000000000000000048
:103D5600000000000000000000000000000000005D
:103D6600000000000000000000000001000000004C
:103D76000000010201000000020100000101000133
:103D8600010001010101010000000000EC0AEC0A3B
:103D9600EC0A020823085E072D082A0827080000F7
:103DA6000000BF0763076107020823085E072D08A6
:103DB6002A089004FF0400FF0100010000FFFF0035
:103DC60000010001FF0000000000AD0308033503F9
:103DD600FA03690344035B030D0A00322E352E31C4
:103DE60000427574746F6E004F757470757400457B
:103DF6006E636F6465727300437573746F6D4465AB
:103E060076696365004465766963655F54657374B6
:063E1600007C00300000FA
:00000001FF
